{
  "contractName": "Springboard",
  "abi": [
    {
      "anonymous": false,
      "inputs": [
        {
          "indexed": false,
          "internalType": "address",
          "name": "",
          "type": "address"
        }
      ],
      "name": "ContractCreated",
      "type": "event"
    },
    {
      "inputs": [],
      "name": "bootstrapCode",
      "outputs": [
        {
          "internalType": "bytes",
          "name": "",
          "type": "bytes"
        }
      ],
      "stateMutability": "view",
      "type": "function"
    },
    {
      "inputs": [
        {
          "internalType": "bytes",
          "name": "runtimeCode",
          "type": "bytes"
        }
      ],
      "name": "execute",
      "outputs": [],
      "stateMutability": "payable",
      "type": "function"
    },
    {
      "inputs": [],
      "name": "getPendingRuntimeCode",
      "outputs": [
        {
          "internalType": "bytes",
          "name": "runtimeCode",
          "type": "bytes"
        }
      ],
      "stateMutability": "view",
      "type": "function"
    }
  ],
  "bytecode": "0x60806040526040518060600160405280602881526020016108b86028913960029080519060200190610032929190610045565b5034801561003f57600080fd5b50610149565b828054610051906100e8565b90600052602060002090601f01602090048101928261007357600085556100ba565b82601f1061008c57805160ff19168380011785556100ba565b828001600101855582156100ba579182015b828111156100b957825182559160200191906001019061009e565b5b5090506100c791906100cb565b5090565b5b808211156100e45760008160009055506001016100cc565b5090565b6000600282049050600182168061010057607f821691505b602082108114156101145761011361011a565b5b50919050565b7f4e487b7100000000000000000000000000000000000000000000000000000000600052602260045260246000fd5b610760806101586000396000f3fe6080604052600436106100345760003560e01c806309c5eabe146100395780638da0fc4b1461005557806394198df114610080575b600080fd5b610053600480360381019061004e9190610449565b6100ab565b005b34801561006157600080fd5b5061006a61021e565b604051610077919061051f565b60405180910390f35b34801561008c57600080fd5b506100956102ac565b6040516100a2919061051f565b60405180910390f35b60008054906101000a900460ff16156100c357600080fd5b60016000806101000a81548160ff02191690831515021790555080600190805190602001906100f392919061033e565b5060006002805461010390610627565b80601f016020809104026020016040519081016040528092919081815260200182805461012f90610627565b801561017c5780601f106101515761010080835404028352916020019161017c565b820191906000526020600020905b81548152906001019060200180831161015f57829003601f168201915b5050505050905060003360405160200161019691906104e9565b6040516020818303038152906040528051906020012090506000818351602085016000f59050803b6101c757600080fd5b7fcf78cf0d6f3d8371e1075c69c492ab4ec5d8cf23a1a239b6a51a1d00be7ca312816040516101f69190610504565b60405180910390a160008060006101000a81548160ff02191690831515021790555050505050565b6002805461022b90610627565b80601f016020809104026020016040519081016040528092919081815260200182805461025790610627565b80156102a45780601f10610279576101008083540402835291602001916102a4565b820191906000526020600020905b81548152906001019060200180831161028757829003601f168201915b505050505081565b6060600180546102bb90610627565b80601f01602080910402602001604051908101604052809291908181526020018280546102e790610627565b80156103345780601f1061030957610100808354040283529160200191610334565b820191906000526020600020905b81548152906001019060200180831161031757829003601f168201915b5050505050905090565b82805461034a90610627565b90600052602060002090601f01602090048101928261036c57600085556103b3565b82601f1061038557805160ff19168380011785556103b3565b828001600101855582156103b3579182015b828111156103b2578251825591602001919060010190610397565b5b5090506103c091906103c4565b5090565b5b808211156103dd5760008160009055506001016103c5565b5090565b60006103f46103ef84610566565b610541565b90508281526020810184848401111561040c57600080fd5b6104178482856105e5565b509392505050565b600082601f83011261043057600080fd5b81356104408482602086016103e1565b91505092915050565b60006020828403121561045b57600080fd5b600082013567ffffffffffffffff81111561047557600080fd5b6104818482850161041f565b91505092915050565b610493816105b3565b82525050565b6104aa6104a5826105b3565b61068a565b82525050565b60006104bb82610597565b6104c581856105a2565b93506104d58185602086016105f4565b6104de8161070c565b840191505092915050565b60006104f58284610499565b60148201915081905092915050565b6000602082019050610519600083018461048a565b92915050565b6000602082019050818103600083015261053981846104b0565b905092915050565b600061054b61055c565b90506105578282610659565b919050565b6000604051905090565b600067ffffffffffffffff821115610581576105806106dd565b5b61058a8261070c565b9050602081019050919050565b600081519050919050565b600082825260208201905092915050565b60006105be826105c5565b9050919050565b600073ffffffffffffffffffffffffffffffffffffffff82169050919050565b82818337600083830152505050565b60005b838110156106125780820151818401526020810190506105f7565b83811115610621576000848401525b50505050565b6000600282049050600182168061063f57607f821691505b60208210811415610653576106526106ae565b5b50919050565b6106628261070c565b810181811067ffffffffffffffff82111715610681576106806106dd565b5b80604052505050565b60006106958261069c565b9050919050565b60006106a78261071d565b9050919050565b7f4e487b7100000000000000000000000000000000000000000000000000000000600052602260045260246000fd5b7f4e487b7100000000000000000000000000000000000000000000000000000000600052604160045260246000fd5b6000601f19601f8301169050919050565b60008160601b905091905056fea2646970667358221220a260aa9ae83636050be2a275d35543a54a19354b4188f273368ae34540f7833a64736f6c634300080400336394198df1600052600060006004601c335afa80601b57600080fd5b3d600060203e6040516060f3",
  "immutableReferences": {},
  "source": "// SPDX-License-Identifier: MIT\n\npragma solidity ^0.8.4;\n\ncontract Springboard {\n  bool _mutex;\n  bytes _pendingRuntimeCode;\n  \n  // this article explains how bootstrapCode is generated\n  // https://blog.ricmoo.com/wisps-the-magical-world-of-create2-5c2177027604\n  //\n  // It is slightly modified from the original to check for staticcall result and use returndatacopy\n  // scripts/bootstrap - contains the bytecodes breakdown\n  // scripts/assemble.js - assemble the bootstrap bytecodes\n  bytes public bootstrapCode = hex\"6394198df1600052600060006004601c335afa80601b57600080fd5b3d600060203e6040516060f3\";\n  \n  event ContractCreated(address);\n  \n  function execute(bytes memory runtimeCode) public payable {\n    require(!_mutex);\n    _mutex = true;\n      \n    // Store the desired runtime bytecode\n    _pendingRuntimeCode = runtimeCode;\n    \n    bytes memory initCode = bootstrapCode;\n    bytes32 salt = keccak256(abi.encodePacked(msg.sender));\n    address addr;\n    \n    // Create the new contract\n    assembly {\n      addr := create2(0, add(initCode, 0x20),\n                      mload(initCode), salt)\n      if iszero(extcodesize(addr)) { revert(0, 0) }\n    }\n\n    emit ContractCreated(addr);\n    _mutex = false;\n  }\n \n\n  // This function is called by the new contract during the create2 call\n  // from the bootstrap, fetching the desired bytecode\n  function getPendingRuntimeCode() public view returns\n                                   (bytes memory runtimeCode) {\n    return _pendingRuntimeCode;\n  }\n}\n",
  "sourcePath": "/Users/dhruvin/gbc/bcdv-1013/Advanced-Smart-Contracts/notes/create2/lab/create2-upgrade/contracts/Springboard.sol",
  "compiler": {
    "name": "solc",
    "version": "0.8.4+commit.c7e474f2.Emscripten.clang"
  },
  "schemaVersion": "3.4.2",
  "updatedAt": "2021-07-27T18:33:11.036Z",
  "devdoc": {
    "kind": "dev",
    "methods": {},
    "version": 1
  },
  "userdoc": {
    "kind": "user",
    "methods": {},
    "version": 1
  }
}