{
  "contractName": "WalletV2",
  "abi": [
    {
      "inputs": [],
      "name": "die",
      "outputs": [],
      "stateMutability": "nonpayable",
      "type": "function"
    },
    {
      "inputs": [],
      "name": "version",
      "outputs": [
        {
          "internalType": "string",
          "name": "ver",
          "type": "string"
        }
      ],
      "stateMutability": "pure",
      "type": "function"
    }
  ],
  "bytecode": "0x608060405234801561001057600080fd5b506101ab806100206000396000f3fe608060405234801561001057600080fd5b50600436106100365760003560e01c806335f469941461003b57806354fd4d5014610045575b600080fd5b610043610063565b005b61004d61007d565b60405161005a91906100f3565b60405180910390f35b600073ffffffffffffffffffffffffffffffffffffffff16ff5b60606040518060400160405280600381526020017f322e300000000000000000000000000000000000000000000000000000000000815250905090565b60006100c582610115565b6100cf8185610120565b93506100df818560208601610131565b6100e881610164565b840191505092915050565b6000602082019050818103600083015261010d81846100ba565b905092915050565b600081519050919050565b600082825260208201905092915050565b60005b8381101561014f578082015181840152602081019050610134565b8381111561015e576000848401525b50505050565b6000601f19601f830116905091905056fea2646970667358221220c951cdfdce258f302e1ad9b1b3fb55e40cffcba000dab2af9bd65ab1a194798364736f6c63430008040033",
  "immutableReferences": {},
  "source": "// SPDX-License-Identifier: MIT\n\npragma solidity ^0.8.4;\n\ncontract WalletV2 {\n\n    function die() public {\n        selfdestruct(payable(address(0)));\n    }\n\n    function version() public pure returns (string memory ver) {\n       return \"2.0\";\n    }\n}\n",
  "sourcePath": "/Users/dhruvin/gbc/bcdv-1013/Advanced-Smart-Contracts/notes/create2/lab/create2-upgrade/contracts/WalletV2.sol",
  "compiler": {
    "name": "solc",
    "version": "0.8.4+commit.c7e474f2.Emscripten.clang"
  },
  "schemaVersion": "3.4.2",
  "updatedAt": "2021-07-27T18:33:11.039Z",
  "devdoc": {
    "kind": "dev",
    "methods": {},
    "version": 1
  },
  "userdoc": {
    "kind": "user",
    "methods": {},
    "version": 1
  }
}